:02000000FA2ED6
:10000800FF00030E8301DB000A08DA008A0170088A
:10001800A0000408A5002308A1002408A2000B1DC5
:1000280066282D08003A031D1B28C52520282D0801
:10003800013A031D2028CF242830F4000030F500B1
:100048003C08F0003D08F10055227808F0007908D6
:10005800F10000307106031D332800307006031DBF
:100068006228A030DF005530E000B424AE01AF01B3
:1000780080302F06F00080307002031D45280830BC
:100088002E02031858282E08303E84000008DF008E
:100098005C30E0006525A030DF005C30E000A3257F
:1000A800AE0A0319AF0A3C28A030DF008C24A22432
:1000B800700803196228A9247008C900BC0A03192A
:1000C800BD0A0B112108A3002208A4002008F00093
:1000D800250884005A088A005B0E8300FF0E7F0EF5
:0200E80009000D
:1000EA00710DF80DF90D7408F8027508031C750FE7
:1000FA00F902F00DF10D0F30FC00710DF80DF90D3C
:10010A007408701C8E28F8027508031C750FF90212
:10011A009328F80775080318750FF907F00DF10D04
:10012A00FC0B822870189F287408F80775080318B2
:08013A00750FF9070000080031
:10014200831203137008F100F0010830FC007108FB
:10015200F40C0318B028FC0BA928F1010034031099
:10016200B528F40C0318F107F10CF00CFC0BB228C3
:02017200080083
:1001740083120313F8010830FC00700DF80D7408A5
:10018400F8020318C728F8070310F00DFC0BBF286A
:02019400080061
:10019600831203134308003A03192129062942084A
:1001A600F000F00D701070084205CC004208F00017
:1001B600F00CF0137008CC0540080319E428013050
:1001C600C80016294708F000F00D701070084705A2
:1001D600CC004708F000F00CF0137008CC05450879
:1001E6000319F728FF30C80016294E08CD00491E0E
:1001F600FE280130CA0016294B08CD00C91C052966
:10020600FF30CA0016294308013A0319D2284308C9
:10021600023A0319E5284308033A0319F828430864
:10022600043A0319FF284A08003A031D1F29480803
:10023600003A031D1F292029C301542A9E292A0892
:10024600031D28290130C8002E290130C300CA0128
:10025600C8010130CD00AE292A0803195F294C08D0
:10026600F4004208F000BA207008013A031D432941
:100276000130C8004A08013A03194229CA0A5F290F
:100286004C08F4004208F000BA207008033A031D37
:100296004F290130C8005F294C08F4004208F000DD
:1002A600BA207008073A031D5F290130C8004A08C2
:1002B600FF3A03195F29CA03AE292B0803199029AF
:1002C6004C08F4004708F000BA207008013A031DF4
:1002D6007429FF30C8004A08013A03197329CA0A6B
:1002E60090294C08F4004708F000BA207008033A39
:1002F600031D8029FF30C80090294C08F4004708E8
:10030600F000BA207008073A031D9029FF30C80094
:100316004A08FF3A03199029CA03AE292B08031D80
:100326009729FF30C8009D290230C300CA01C801C1
:100336000630CD00AE294D08003A031922294D0892
:10034600013A03192F294D08063A031960294D0869
:10035600073A03199129352A2C08031DB5290130BE
:10036600CA00BB290430C300CA01C8010230CC0050
:10037600452A2C080319F1294D084B02F100F20118
:10038600031CF2037108A6007208A700003072066B
:10039600031DCF2900307106031DD3290130CA0081
:1003A60000302706031DD92901302606031DE22940
:1003B6000130CA004808FF3A0319E229C803FF3092
:1003C6002706031DE829FF302606031DF129013003
:1003D600CA004808013A0319F129C80A452A28081B
:1003E6000319272A4D084E02F100F201031CF203FD
:1003F6007108A6007208A70000307206031D052AC0
:1004060000307106031D092AFF30CA000030270696
:10041600031D0F2A01302606031D182AFF30CA00C5
:100426004808FF3A0319182AC803FF302706031D98
:100436001E2AFF302606031D272AFF30CA00480859
:10044600013A0319272AC80A452A2808031D2E2A15
:10045600FF30CA00342A0330C300CA01C801403045
:10046600CC00452A4C08013A0319AF294C08023A38
:100476000319BC294C08403A0319F2294C08803A62
:100486000319282A4808CD074A08013A031D4E2AAF
:10049600CC0D4C10542A4A08FF3A031D542ACC0CA2
:0404A600CC1308006B
:1004AA00831203137408003A031D642A7508003A7C
:1004BA00031D642AFF30F0007F30F100BD2A831249
:1004CA000313FD01F901F8017108700403190034DE
:1004DA0071087506FA00FA1BFD09FB01F51F7A2A55
:1004EA00F409F509F40A0319F50AF11F812AF0093A
:1004FA00F109F00A0319F10A71087504FA00FA1BE6
:10050A00962A75207B18A92AFD1F0034F009F109E3
:10051A00F00A0319F10AF809F909F80A0319F90A9C
:10052A000034F51FA52AF11BA12A7108F9007008E9
:10053A00F800F101F001892AF101F001F00A003412
:10054A00F109F009FB0A862AF80A0319F90A74085C
:10055A007802031D892A75087902031D892AF9017F
:10056A00F801F00A0319F10AF11F892A0000FF3481
:02057A00080077
:10057C00831203134208F0002A08F400A12070082B
:10058C00B0024708F0002B08F400A1207008B70255
:10059C0028080319272B01304E02F000F101031C2F
:1005AC00F1037008303EF400740884000008F30076
:1005BC007308803C013003180030F2000730F10062
:1005CC007208F00071080319EF2AF00D7010FF3E4D
:1005DC00E92A70087302F000740884007008800027
:1005EC004E08303EF1007108840080300002F000AB
:1005FC0071088400700880004E08013EF000F10183
:10060C000318F10A7008303EF400740884000008E6
:10061C00F3007308803C013003180030F2000730FF
:10062C00F1007208F00071080319202BF00D701006
:10063C00FF3E1A2B70087302F000740884007008D7
:10064C0080002C0803196F2B01304B02F000F101D4
:10065C00031CF1037008303EF3007308840000089B
:10066C00F20001307205F1007108003A01300319F3
:10067C000030F00070087202F000730884007008FB
:10068C0080004B08303EF100710884000003F0003C
:10069C0071088400700880004B08013EF000F101E5
:1006AC000318F10A7008303EF30073088400000848
:1006BC00F20001307205F1007108003A01300319A3
:1006CC000030F00070087202F000730884007008AB
:0406DC008000080092
:0E06E0008312031324088A00230882000800F6
:1006EE008312031329080319922B4C08F000F00D06
:1006FE00701070084C07F2004C08F000F00CF0136C
:10070E007208F0077008C2007008C7004D08CE00CE
:10071E004D08CB00112C2A080319AE2B4208073CBA
:10072E000318A32B410AF4000030F5004208F00034
:10073E00F10155227008C200E03042020318AE2BC0
:10074E003F0AF0004208F400A1207008C2002B08F6
:10075E000319CA2B4708073C0318BF2B460AF4009F
:10076E000030F5004708F000F10155227008C7006F
:10077E00E03047020318CA2B440AF0004708F40081
:10078E00A1207008C70028080319EB2B06304E0273
:10079E000318DC2B08304905F1007108003A0130CE
:1007AE0003190030F0007008CE074E08013C031804
:1007BE00EB2B20304905F1007108003A0130031986
:1007CE000030F0007008CE022C0803190C2C0630F5
:1007DE004B020318FD2B04304905F1007108003A55
:1007EE00013003190030F0007008CB074B08013CB4
:1007FE0003180C2C01304905F1007108003A013044
:10080E0003190030F0007008CB024308003A0319B8
:06081E00112CCB200800A4
:1008240000308312031306180130BF00003086180D
:100834000130C000003006190130C10000308619B3
:100844000130C4000030061A0130C5000030861A99
:060854000130C60008009F
:10085A00392C103083120313B3021030B40208305B
:10086A00B4020830B3025B2C8312031300303B0638
:10087A00031D412C04303A0603192E2C00303B0686
:10088A00031D492C03303A060319322C00303B066B
:10089A00031D512C02303A060319342C00303B0652
:0E08AA00031D592C01303A060319362C0800A4
:1008B800831603139818622C00005C2C83126208BC
:0408C800990008008B
:1008CC0083120313AE01AF0180302F06F00080308D
:1008DC007002031D732C08302E0203187E2C2E0878
:1008EC00303E8400FF308000AE0A0319AF0A6A2C38
:1008FC004D08303EF100710884004C080002F000F5
:0C090C007108840070088000BE22080002
:1009180083120313E1015F0884000008E000600807
:10092800003A0319A12C6008E2005C24E10A61087E
:0C0938005F0784000008E000932C08001A
:0E0944000030831203138C1A0130F0000800FB
:10095200831203131A08F100981CB12C18121816EE
:060962007108F00008001E
:10096800831203135F08F2007208F100F20A6008AC
:10097800F000E00A700884000008F00071088400A4
:10098800700880007108840000080319CC2CB82C6A
:060998005F08F0000800FA
:10099E00831203135308F4005408F5003C08F000CA
:1009AE003D08F10055227808F0007908F10000307A
:1009BE007106031DE42C00307006031DE72C77230F
:1009CE005108F4005208F5003C08F0003D08F10013
:1009DE0055227808F0007908F10000307106031DE9
:1009EE00FA2C00307006031DFD2CCB203D08043A76
:1009FE00031D032DC4303C06031D082DBC01BD0193
:100A0E00412D1430F4000030F5003C08F0003D0894
:100A1E00F10055227808F0007908F10000307106D7
:100A2E00031D1B2D00307006031D412D662412245C
:100A3E00861C262D061C262D061D262D3C2D861DBC
:100A4E002D2D061E2D2D861E2D2D3C2D07304905D4
:100A5E00F1007108073A03193C2D38304905F100B1
:100A6E007108383A03193C2D412DAD01AA01AB0195
:060A7E00A801AC01080014
:100A84008312031385108514300888000130AE00EA
:100A94000030AF0080302F06F00080307002031D5C
:100AA400552D08302E020318642DFF3088000510E0
:100AB40005142E08303E840000088800AE0A03198D
:060AC400AF0A4C2D0800F2
:100ACA00831203135F08F000F00CF013F00CF0131C
:100ADA00F00CF013F00CF0130030F1006130F00765
:100AEA0007300318013EF1077008A3007108A4003B
:100AFA0070238A110A12F0006008840070088000CE
:100B0A00600AF2000F305F05F0000030F10061303A
:100B1A00F00707300318013EF1077008A3007108B7
:100B2A00A40070238A110A12F00072088400700867
:0C0B3A0080000230600784008001080089
:100B4600831203135F08F200720884000008031979
:100B5600AE2DF20AA72D7208F100F20A6008F00025
:100B6600E00A700884000008F0007108840070082C
:100B760080007108840000080319C22DAE2D5F089D
:040B8600F000080073
:100B8A00503083120313F4000030F5003C08F000E3
:100B9A003D08F10055227808F0007908F10000308C
:100BAA007106031DDA2D00307006031D122E2A0865
:100BBA000319E22D8130B000E42DFF30B0002B087C
:100BCA000319EA2D8130B700EC2DFF30B700FF3052
:100BDA00BE002808013A031DF42D8030BE022C08FD
:100BEA00013A031DF92DBE030130AE000030AF00FB
:100BFA0080302F06F00080307002031D062E073069
:100C0A002E020318112E2E08303E84003E08800062
:100C1A00AE0A0319AF0AFD2D2D243030F40001303D
:100C2A00F5003C08F0003D08F10055227808F00074
:100C3A007908F10000307106031D252E0030700678
:100C4A00031D272E1430F4000030F5003C08F00094
:100C5A003D08F10055227808F0007908F1000030CB
:100C6A007106031D3A2E00307006031D9E2E2A08B7
:100C7A000319492E0618432E0314442E031000307C
:100C8A0003180130AA004D2E003006190130AA00BF
:100C9A002B0803195A2E861A542E0314552E0310A4
:100CAA00003003180130AB005E2E00308619013087
:100CBA00AB00280803196B2E08304905A80028083C
:100CCA00003A0130031D0030A800742E2030490577
:100CDA00A8002808003A013003190030A8002C089F
:100CEA000319812E01304905AC002C08003A013065
:100CFA00031D0030AC008A2E04304905AC002C08D4
:100D0A00003A013003190030AC008618972E061AF3
:100D1A00972E12304905F1007108003A031D972EEB
:100D2A00F001992E0130F0007008031D9E2EBA01C1
:100D3A00BB013D08043A031DA42EC4303C06031D22
:100D4A00DD2EBC01BD0100303B06031DAE2E043072
:100D5A003A06031DDA2ECA01C8010130AD00BA01F4
:100D6A00BB01C530CF000430D0002A080319C22EB7
:100D7A000130C3000130CD00D92E2B080319CA2E29
:100D8A000230C3000630CD00D92E28080319D22E0E
:100D9A000330C3004030CC00D92E2C080319D92EB9
:100DAA000430C3000230CC00DD2EBA0A0319BB0A94
:020DBA0008002F
:100DBC0070238A110A128000840AA30A0319A40A58
:080DCC00F003031DDE2E0800F8
:100DD400831603139816903083129800831687178E
:100DE400071383128C1EF92E1A08F000F32E080044
:100DF4007227831603138501880180308700FF3032
:100E04008600A0308B00C3308100831285108514C6
:100E14008130831699001815EA26AE01AF0180309F
:100E24002F06F00080307002031D1A2F08302E02A6
:100E34000318252F2E08303E8400FF308000AE0AB0
:0C0E44000319AF0A112F4225252F272F7C
:100EE40026308400343083120313F0002D30A30025
:080EF4000730A400DE2608000F
:040E5A00003400342C
:020E5E0000345E
:020E600000345C
:020E620000345A
:020E6400003458
:020E6600003456
:020E6800003454
:040E6A00003400341C
:100E6E000F34FD34FB34F734EF34DF34BF347F34CA
:040E7E000A340034FE
:040E82000034003404
:040E86000034003400
:020E8A00003432
:060E8C00003400340034C4
:020E92001C340E
:020E9400003428
:060E9600003400340034BA
:020E9C003834E8
:020E9E0000341E
:020EA00000341C
:020EA20000341A
:020EA400063412
:020EA6002034F6
:020EA800013413
:020EAA00013411
:040EAC00C534043411
:040EB000CB3400340B
:040EB4007A34003458
:0A0EB80044344F3454343A3400340B
:100EC20030343134323433343434353436343734E4
:100ED200383439344134423443344434453446346A
:02400E004A2F37
:00000001FF
